:100000000C9464000C948C000C948C000C942209C9
:100010000C9422090C9422090C948C000C948C00F2
:100020000C948C000C948C000C948C000C948C0020
:100030000C948C000C94B30A0C948C000C948C00DF
:100040000C94B20B0C948C000C94C30E0C94F50E13
:100050000C948C000C948C000C948C000C948C00F0
:100060000C948C000C948C0000000008000201002D
:100070000003040700000000000000000102040863
:100080001020408001020408102001020408102002
:10009000040404040404040402020202020203032E
:1000A00003030303000000002300260029000000D2
:1000B0000000250028002B0000000000240027007D
:1000C0002A00FE01250F050211241FBECFEFD8E044
:1000D000DEBFCDBF12E0A0E0B1E0E0E1F2E202C09D
:1000E00005900D92AC32B107D9F725E0ACE2B2E051
:1000F00001C01D92A932B207E1F710E0C6ECD0E0D2
:1001000004C02297FE010E94E110C23CD107C9F74A
:100110000E944E100C94FB100C9400000C94ED10F7
:10012000CF93DF93D82F61E0809162010E94E60CAB
:10013000C8E060E0809164010E941F0DD0FF02C002
:1001400061E001C060E0809162010E941F0DD695C0
:1001500061E0809164010E941F0DC15051F7DF9151
:10016000CF9108950F931F93CF93DF9360E0809119
:1001700062010E94E60C08E010E0C12FD0E0D595A6
:10018000C7951C2F60E0809164010E941F0D809133
:1001900062010E94550D019709F4106861E0809199
:1001A00064010E941F0D015041F7812FDF91CF9113
:1001B0001F910F9108951F93CF93DF93182FC6E6D9
:1001C000D1E060E088810E941F0D812F0E94900085
:1001D00061E08881DF91CF911F910C941F0D0F93E7
:1001E0001F93CF93DF93082F162F84E40E94DB0028
:1001F000C6E6D1E060E088810E941F0D802F806CF0
:100200000E949000812F0E94900061E08881DF9120
:10021000CF911F910F910C941F0DEF92FF920F93AE
:100220001F93CF93DF9300D000D0CDB7DEB760E04F
:10023000809166010E941F0D82E40E9490007E0161
:1002400085E0E80EF11C8E010F5F1F4F0E94B20087
:10025000F80181938F01EE15FF05C1F761E08091F0
:1002600066010E941F0DFE01319680E090E060E083
:100270002191082E01C0220F0A94EAF7622B019601
:1002800084309105A9F720E030E041E050E070E0D3
:10029000822FFA01022E02C0EE0FFF1F0A94E2F72E
:1002A000E617F70731F02F5F3F4F2830310581F710
:1002B00088E00F900F900F900F90DF91CF911F91DA
:1002C0000F91FF90EF900895CF938BE80E94DB0091
:1002D00080E40E94DB0060E0809166010E941F0DB7
:1002E00080EC0E949000C0E180E00E949000C1502C
:1002F000D9F761E080916601CF910C941F0DCF93E7
:1003000060E070E086E694E00E945E0B81E090E0A1
:100310000E94E51080933F0282E090E00E94E51089
:1003200080933E0283E090E00E94E51080933D02BE
:1003300084E090E00E94E51080933C0285E090E02C
:100340000E94E51080933B0286E090E00E94E51059
:1003500080933A021092F50326E040E855E260E00F
:1003600070E08CE894E00E94610E6BE671E08CE82E
:1003700094E00E94AC0F40E855E260E070E083E05A
:1003800094E00E94250A60E080915E010E94E60CE4
:1003900060E0809160010E94E60C61E0809166015E
:1003A0000E94E60C61E0809164010E94E60C61E02D
:1003B000809162010E94E60C0E94640164EF71E08A
:1003C00080E090E00E942B0CC0E04FEF5FE06C2FCC
:1003D00086E694E00E94E80ACF5FC730B1F786E670
:1003E00094E00E942C0B6091080180E00E94EF00D5
:1003F0006091090182E0CF910C94EF0020E048E089
:1004000067E083E094E00C94F50983E094E00C94B9
:100410009C094F925F926F927F928F929F92AF92C0
:10042000BF92CF92DF92EF92FF920F931F93CF93E1
:10043000DF930E94FC0B20E63AEE40E050E00E9481
:100440007E108091400290914102820F931F909301
:1004500043028093420280915E010E94A00C8A3385
:10046000924034F0809160010E94A00C4E974CF5B0
:10047000C0E04FEF5FE06C2F86E694E00E94E80A50
:10048000CF5FCE30B1F786E694E00E942C0B6091EE
:10049000090180E00E94EF006091090182E0DF9194
:1004A000CF911F910F91FF90EF90DF90CF90BF9071
:1004B000AF909F908F907F906F905F904F900C9433
:1004C000EF0083E094E00E94CB08892B09F440C23E
:1004D0006091090180E00E94EF006091080182E0D4
:1004E0000E94EF00C091F503D0E083E094E00E9409
:1004F0003D08CA50DC4F88838091F503E82FF0E077
:10050000EA50FC4F90819A3509F0D5C0E6EFEE2E07
:10051000E3E0FE2E0EEF13E0F8E1DF2EA6E0CA2E98
:10052000F70181917F01813409F054C08091F50376
:10053000893008F44FC08081F8013697E0818D9DA5
:10054000E00D1124E0934402D80115972C91CE9E22
:10055000F0011124EB5BFD4F8091FA0390E03CE346
:10056000239F800D911D11249183808312968C917D
:1005700090E09383828311968C9190E0958384839D
:100580000E94FC0B2B013C0160933102509232021D
:100590006092330270923402109235021092360249
:1005A0001092370210923802F80131972081F80139
:1005B0003081432F50E0FCE32F9F400D511D11244B
:1005C00050934102409340026D587E4F8CE894E076
:1005D0000E94AC0F0F5F1F4F2EEFE21623E0F206D2
:1005E00009F09ECF69E871E08CE894E00E94A60FC4
:1005F000A0914402C6E0CA9FD0011124AB5BBD4F5D
:100600006D917C914AE050E08CE894E00E943110BA
:1006100064E971E08CE894E00E94A60F66E971E05D
:100620008CE894E00E94A60FA0914402CA9FD001DA
:100630001124AB5BBD4F12966D917C9113974AE0EC
:1006400050E08CE894E00E94311064E971E08CE89D
:1006500094E00E94A60F6CE971E08CE894E00E949F
:10066000A60FE0914402CE9FF0011124EB5BFD4FF9
:10067000648175814AE050E08CE894E00E9431107A
:1006800064E971E08CE894E00E94A60F61EA71E0F1
:100690008CE894E00E94A60F6091400270914102A4
:1006A0004AE050E08CE894E00E9431108CE894E03D
:1006B0000E94A80F43C19F3F09F040C1833008F456
:1006C0003DC16CEA71E08CE894E00E94AC0FC6EF8B
:1006D000D3E08091F50390E09E01265F33408217BE
:1006E000930744F069914AE050E08CE894E00E945E
:1006F0001A10EFCF6CEA71E08CE894E00E94AC0F26
:100700008091F50390E08A509C4FFC013397208143
:100710002A3F09F0E1C021E0209330023196208188
:1007200030E030932D0220932C023196808190E0AE
:1007300090932F0280932E0260EC71E08CE894E09D
:100740000E94AC0F80912C0290912D02892B39F0E0
:1007500080912C0290912D020197C1F51CC0C0E53B
:10076000D1E0F12C0FEF1FE0499120912E02309142
:100770002F02429FC001439F900D1124A801481BE6
:10078000590B6F2D86E694E00E94E80AF39437E057
:10079000F312EACFDDCFC2E4D1E0F12C0FEF1FE07E
:1007A000499120912E0230912F02429FC001439F18
:1007B000900D1124A801481B590B6F2D86E694E07B
:1007C0000E94E80AF39487E0F812EACF80912C02A5
:1007D00090912D020297D9F4C4E3D1E0F12C0FEFF0
:1007E0001FE0499120912E0230912F02429FC001BB
:1007F000439F900D1124A801481B590B6F2D86E6CD
:1008000094E00E94E80AF394E7E0FE12EACF8091B8
:100810002C0290912D020397D9F4C6E2D1E0F12C7D
:100820000FEF1FE0499120912E0230912F02429F3D
:10083000C001439F900D1124A801481B590B6F2D37
:1008400086E694E00E94E80AF394F7E0FF12EACF0C
:1008500080912C0290912D020497D9F4C8E1D1E047
:10086000F12C0FEF1FE0499120912E0230912F02C1
:10087000429FC001439F900D1124A801481B590BB2
:100880006F2D86E694E00E94E80AF39427E0F212C6
:10089000EACF80912C0290912D02059709F040C07B
:1008A000CAE0D1E0F12C0FEF1FE0499120912E0218
:1008B00030912F02429FC001439F900D1124A80147
:1008C000481B590B6F2D86E694E00E94E80AF394CA
:1008D00037E0F312EACF24C0203F81F510923002B6
:1008E000FC013297208130E030932D0220932C02BE
:1008F0003196808190E090932F0280932E026FECCE
:1009000071E08CE894E00E94AC0FC0E04FEF5FE034
:100910006C2F86E694E00E94E80ACF5FCE30B1F7F4
:1009200040E050E067E086E694E00E94E80A86E650
:1009300094E00E942C0B8FEF8093F5038091F503D8
:10094000803118F01092F50303C08F5F8093F50398
:1009500020913102309132024091330250913402A1
:100960006091350270913602809137029091380281
:10097000A0E00E94BF1009F468C18091300281118B
:1009800064C1609109010E94EF006091070182E05B
:100990000E94EF006FED71E08CE894E00E94A60FDA
:1009A00060914202709143024AE050E08CE894E08A
:1009B0000E943710209168013091690140914202F4
:1009C0005091430260E0EE24E394F12C76E0862F10
:1009D000992787FD90958217930790F4789FF001EF
:1009E000799FF00D1124EB5BFD4F808191814817B9
:1009F000590720F08E159F0508F07C016F5FE7CF47
:100A0000C12C66E0D62E0FEF1FE0CC2DDD27C7FDF1
:100A1000D0958091680190916901C817D90708F0B5
:100A20001BC3DC9EF001DD9EF00D1124EB5BFD4F3E
:100A300080819181E816F90609F005C182819381D0
:100A4000892B69F0DC9EF001DD9EF00D1124EB5B3B
:100A5000FD4F82819381019709F042C021C050E58A
:100A6000A52E51E0B52E712C4F0184E0880E911C0B
:100A7000F50141915F01F40120813181429FC00164
:100A8000439F900D1124A801481B590B672D86E642
:100A900094E00E94E80A7394F7E07F12E9CFD2CF86
:100AA00042E4A42E41E0B42E712C4F0124E0820ECA
:100AB000911CF50141915F01F40120813181429F38
:100AC000C001439F900D1124A801481B590B672DAD
:100AD00086E694E00E94E80A7394F7E07F12E9CF7B
:100AE000DC9EF001DD9EF00D1124EB5BFD4F828159
:100AF0009381029701F534E3A32E31E0B32E712CDC
:100B00004F0124E0820E911CF50141915F01F40137
:100B100020813181429FC001439F900D1124A80183
:100B2000481B590B672D86E694E00E94E80A7394EF
:100B3000F7E07F12E9CFDC9EF001DD9EF00D11247D
:100B4000EB5BFD4F82819381039701F526E2A22E94
:100B500021E0B22E712C4F0124E0820E911CF50190
:100B600041915F01F40120813181429FC001439F87
:100B7000900D1124A801481B590B672D86E694E0BF
:100B80000E94E80A7394F7E07F12E9CFDC9EF0013F
:100B9000DD9EF00D1124EB5BFD4F82819381049764
:100BA00001F598E1A92E91E0B92E712C4F0124E0B6
:100BB000820E911CF50141915F01F4012081318188
:100BC000429FC001439F900D1124A801481B590B5F
:100BD000672D86E694E00E94E80A7394F7E07F129E
:100BE000E9CFDC9EF001DD9EF00D1124EB5BFD4FA3
:100BF000828193810597E1F4CAE0D1E0912C5F01F5
:100C000024E0A20EB11C4991F50120813181429F5F
:100C1000C001439F900D1124A801481B590B692D59
:100C200086E694E00E94E80A9394F7E09F12EBCFE7
:100C300040E050E067E086E694E00E94E80A86E63D
:100C400094E00E942C0BC394E0CE0E940D0180938F
:100C50003902823031F080913902863009F095C036
:100C60004CC068EC70E080E090E00E942B0C80911A
:100C70003F02853618F010923F0203C08D5F8093CB
:100C80003F0280913F026EE10E945E10E82FF0E08B
:100C9000E050FF4F608180E00E94EF0090913F02A2
:100CA0008BEA989F812D112486956AE00E945E1040
:100CB000E92FF0E0E050FF4F608182E00E94EF00FA
:100CC00060913F0281E090E00E948E00C0E5D1E09B
:100CD000F12C0FEF1FE090913F028991A801989F9E
:100CE0004019510911246F2D86E694E00E94E80A0C
:100CF000F3942EE0F212EFCFAECF68EC70E080E01C
:100D000090E00E942B0C80913E02853608F443C08F
:100D100010923E0280913E026EE10E945E10E82F2A
:100D2000F0E0E050FF4F608180E00E94EF00909182
:100D30003E028BEA989F812D112486956AE00E94DD
:100D40005E10E92FF0E0E050FF4F608182E00E94EA
:100D5000EF0060913E0282E090E00E948E00C2E4CB
:100D6000D1E0F12C0FEF1FE090913E028991A80194
:100D7000989F4019510911246F2D86E694E00E9436
:100D8000E80AF3943EE0F312EFCF8091390283300A
:100D900009F04DC004C08D5F80933E02BBCF68EC6C
:100DA00070E080E090E00E942B0C80913D0285363F
:100DB00008F443C010923D0280913D026EE10E9412
:100DC0005E10E82FF0E0E050FF4F608180E00E946D
:100DD000EF0090913D028BEA989F812D112486951A
:100DE0006AE00E945E10E92FF0E0E050FF4F608162
:100DF00082E00E94EF0060913D0283E090E00E945B
:100E00008E00C4E3D1E0F12C0FEF1FE090913D0282
:100E10008991A801989F4019510911246F2D86E6E8
:100E200094E00E94E80AF3948EE0F812EFCF8091EC
:100E30003902873009F04DC004C08D5F80933D02B8
:100E4000BBCF68EC70E080E090E00E942B0C8091BA
:100E50003C02853608F443C010923C0280913C026B
:100E60006EE10E945E10E82FF0E0E050FF4F6081DD
:100E700080E00E94EF0090913C028BEA989F812DC8
:100E8000112486956AE00E945E10E92FF0E0E050A0
:100E9000FF4F608182E00E94EF0060913C0284E09D
:100EA00090E00E948E00C6E2D1E0F12C0FEF1FE02F
:100EB00090913C028991A801989F401951091124F1
:100EC0006F2D86E694E00E94E80AF394EEE0FE12AD
:100ED000EFCF80913902843009F04DC004C08D5F9E
:100EE00080933C02BBCF68EC70E080E090E00E9411
:100EF0002B0C80913B02853608F443C010923B02D4
:100F000080913B026EE10E945E10E82FF0E0E0501D
:100F1000FF4F608180E00E94EF0090913B028BEADE
:100F2000989F812D112486956AE00E945E10E92F1A
:100F3000F0E0E050FF4F608182E00E94EF0060919E
:100F40003B0285E090E00E948E00C8E1D1E0F12CE8
:100F50000FEF1FE090913B028991A801989F4019E3
:100F6000510911246F2D86E694E00E94E80AF3945B
:100F7000FEE0FF12EFCF80913902893009F04DC0B9
:100F800004C08D5F80933B02BBCF68EC70E080E0D3
:100F900090E00E942B0C80913A02853608F458C0EC
:100FA00010923A0280913A026EE10E945E10E82FA0
:100FB000F0E0E050FF4F608180E00E94EF009091F0
:100FC0003A028BEA989F812D112486956AE00E944F
:100FD0005E10E92FF0E0E050FF4F608182E00E9458
:100FE000EF0060913A0286E090E00E948E00CAE035
:100FF000D1E0F12C0FEF1FE090913A028991A80106
:10100000989F4019510911246F2D86E694E00E94A3
:10101000E80AF3942EE0F212EFCF40E050E06FE0E8
:1010200086E694E00E94E80A86E694E0DF91CF919C
:101030001F910F91FF90EF90DF90CF90BF90AF90F6
:101040009F908F907F906F905F904F900C942C0B9F
:101050008D5F80933A02A6CFDF91CF911F910F91C0
:10106000FF90EF90DF90CF90BF90AF909F908F90C8
:101070007F906F905F904F9008952091640430911D
:10108000650428173907B9F490912204809123044C
:10109000981789F0E0912204F0E0EC5DFB4F80812D
:1010A0002091220430E02F5F3F4F2F73332720938E
:1010B000220490E008958FEF9FEF08951F93CF9340
:1010C000DF93DC015C968D919C915D97009749F4CC
:1010D00081E090E013969C938E93129780E090E0CD
:1010E0003BC05196ED91FC91529750962C915097A0
:1010F000322F30951FB75E964C915E9741FB772754
:1011000070F941FD6095F8944081772311F0422BEE
:1011100001C043234083EC012197F1F748E050815F
:1011200060FF02C0522B01C053235083EC01219772
:10113000F1F76695415099F78081772311F0832369
:1011400001C0822B80831FBF5C968D919C915D971F
:101150000197F1F781E090E0DF91CF911F91089521
:10116000089520916404309165042817390781F4AB
:101170009091220480912304981751F0E091220469
:10118000F0E0EC5DFB4F8081992787FD90950895F5
:101190008FEF9FEF08952091640430916504281724
:1011A000390771F4809123042091220490E0805C3F
:1011B0009F4F821B910960E470E00E946A100895BD
:1011C00080E090E00895E0916404F0916504E817F0
:1011D000F90769F4A389B4899C918589809589234D
:1011E0008C93109265041092640481E0089580E06D
:1011F0000895CF93DF93EC018A8D9B8D892BF1F0BD
:1012000080916404909165048C179D07B9F0009754
:1012100011F00E94E3088E8D8E7F8E8F1092230432
:1012200010922204D0936504C0936404EB89FC8976
:1012300080819D89892B808381E001C080E0DF91DE
:10124000CF9108951F920F920FB60F9211242F93F2
:101250003F934F935F936F937F938F939F93AF933E
:10126000BF93EF93FF93E0916404F091650430978E
:1012700009F451C0868DA685B785958581FF04C088
:101280008C91892329F447C08C91892309F043C0AC
:10129000A389B4899C918589809589238C938689BB
:1012A00097890197F1F7208D318DA685B7857585D2
:1012B00058E040E0C9010197F1F7842F90E095953F
:1012C0008795482F6C91672309F04068515091F73A
:1012D000868D81FD40958091230490E001968F7367
:1012E000992720912204281749F0A0912304B0E007
:1012F000AC5DBB4F4C938093230403C0868D81600B
:10130000868F828D938D0197F1F7A389B4898C9193
:101310009589892B8C93FF91EF91BF91AF919F910C
:101320008F917F916F915F914F913F912F910F908E
:101330000FBE0F901F9018952FEF31E0FC01318305
:1013400020830C94E3081F93CF93DF93EC01162FB7
:101350006E8D6695617081E06827812F0E941F0D58
:1013600061E0812F0E94E60C812F90E0FC01E4589F
:10137000FF4FE491E88BFC01E057FF4FE491F0E070
:10138000EE0FFF1FE255FF4F859194919A8B898B49
:10139000DF91CF911F9108951F93CF93DF93EC01BD
:1013A000162F60E0812F0E94E60C8E8D81FD04C017
:1013B00061E0812F0E941F0D1C87812F90E0FC01AE
:1013C000E458FF4FE491ED87FC01E057FF4FE491B3
:1013D000F0E0EE0FFF1FEC55FF4F859194919F8732
:1013E0008E87DF91CF911F910895FF920F931F93E6
:1013F000CF93DF93EC01F62E522F1B821A8208EE58
:1014000013E020E030E00C831D832E833F838FEFB9
:1014100091E0998388831F8A1E8A198E188E1B8EED
:101420001A8E1D8E1C8E8E8D8E7F50FB81F98E8FB5
:10143000642FCE010E94A3096F2DCE01DF91CF91C1
:101440001F910F91FF900C94CC09CF93DF93EC0187
:101450009A01AB011B8E1A8E198E188E1F8A1E8A56
:1014600060E079E08DE390E00E94A010C901243093
:10147000310520F0B9016350710902C061E070E0EC
:101480007D8F6C8FEC85E63108F068C0B9017695E8
:1014900067956431710518F06351710902C061E00C
:1014A00070E07F8B6E8B069718F0C901059702C01C
:1014B00081E090E0998F888FC901880F991F820F72
:1014C000931F96958795969587958D30910510F089
:1014D0000C9702C081E090E09B8F8A8F209168007A
:1014E000E83050F091E0EE3008F490E081E001C087
:1014F000880F9A95EAF701C084E0822B80936800F8
:101500002C85283038F02E3040F0263148F48CE617
:1015100090E008C08DE690E005C08BE690E002C048
:1015200080E090E09C8B8B8B283030F481E001C010
:10153000880F2A95EAF70DC0822F90E02E3010F424
:10154000089701C00E9791E001C0990F8A95EAF7BC
:10155000892F8D8B8C8D9D8D0197F1F7CE01DF91B9
:10156000CF910C94F9081F920F920FB60F9211248D
:101570002F933F934F935F936F937F938F939F939B
:10158000AF93BF93EF93FF9380E28093800010921C
:101590006F00109282048091800490918104892BC5
:1015A00031F07894E0918004F09181040995FF91E5
:1015B000EF91BF91AF919F918F917F916F915F91CB
:1015C0004F913F912F910F900FBE0F901F90189544
:1015D0008FE0861B93E0899FF0011124F695E79533
:1015E000E859FB4F80FF06C08081807F852B808378
:1015F00041830895CA0124E0969587952A95E1F7DD
:10160000808381818F704295407F842B81830895F0
:10161000CB0154E0969587955A95E1F7262F962FA2
:101620009295907F972BE8E6F4E080839183228364
:10163000339634E0E038F307C0F30895239A259AEF
:10164000229A2D9881E08DBD80E58CBD08958EBDD8
:101650000DB407FEFDCF0895CF93DF9380918204F0
:10166000811128C080E280938000809167048823E4
:1016700029F010926704C8E6D4E003C02D9A2D9893
:10168000FACF88810E94270B89810E94270B8A81CB
:101690000E94270B239684E0C038D80790F381E09E
:1016A0008093820490EA90938000B09A80936F00B8
:1016B00080E001C081E0DF91CF9108950F931F93E7
:1016C000CF93DF9300D0CDB7DEB78C01219A229A59
:1016D000539A2A9A69837A830E941E0B69817A81C0
:1016E000C8010E94080BC8010E942C0BE0E8F0E042
:1016F00080E2808310926F0010928204299A2998C8
:101700008083E1E8F0E080E1808381E090E09093E5
:1017100089008093880082E090E090938B00809312
:101720008A0080E090E2909387008093860083E2B5
:101730008093B000A1EBB0E088E08C931092B400ED
:1017400083E08093B3008C9181608C938081816071
:101750008083C8010F900F90DF91CF911F910F915F
:101760000C942C0B1F920F920FB60F9211242F93F3
:101770003F938F939F93AF93BF93809184049091F5
:101780008504A0918604B09187043091830423E0FE
:10179000230F2D3720F40196A11DB11D05C026E8A9
:1017A000230F0296A11DB11D20938304809384040E
:1017B00090938504A0938604B09387048091880455
:1017C00090918904A0918A04B0918B040196A11D87
:1017D000B11D8093880490938904A0938A04B093E8
:1017E0008B04BF91AF919F918F913F912F910F905B
:1017F0000FBE0F901F9018952FB7F8946091840436
:101800007091850480918604909187042FBF08957C
:101810003FB7F8948091880490918904A0918A043C
:10182000B0918B0426B5A89B05C02F3F19F00196F7
:10183000A11DB11D3FBF6627782F892F9A2F620FF8
:10184000711D811D911D42E0660F771F881F991F32
:101850004A95D1F708958F929F92AF92BF92CF92FF
:10186000DF92EF92FF926B017C010E94080C4B010A
:101870005C01C114D104E104F104F1F00E945D1097
:101880000E94080C681979098A099B09683E73400F
:101890008105910570F321E0C21AD108E108F10831
:1018A00088EE880E83E0981EA11CB11CC114D104DF
:1018B000E104F10429F7DDCFFF90EF90DF90CF90A6
:1018C000BF90AF909F908F900895789484B5826078
:1018D00084BD84B5816084BD85B5826085BD85B5D4
:1018E000816085BDEEE6F0E0808181608083E1E883
:1018F000F0E01082808182608083808181608083BB
:10190000E0E8F0E0808181608083E1EBF0E08081BD
:1019100084608083E0EBF0E0808181608083EAE78F
:10192000F0E0808184608083808182608083808118
:10193000816080838081806880831092C1000895D7
:101940008E3008F08E50877020916A0190E4299FB4
:1019500090011124822B80937C0080917A00806416
:1019600080937A0080917A0086FDFCCF8091780088
:101970002091790090E0922B0895833081F028F433
:10198000813099F08230A1F008958730A9F0883035
:10199000B9F08430D1F4809180008F7D03C08091B4
:1019A00080008F7780938000089584B58F7702C080
:1019B00084B58F7D84BD08958091B0008F7703C07A
:1019C0008091B0008F7D8093B0000895CF93DF9316
:1019D00090E0FC01E458FF4F2491FC01E057FF4FD9
:1019E0008491882349F190E0880F991FFC01E85405
:1019F000FF4FA591B49182559F4FFC01C591D491A1
:101A00009FB7611108C0F8948C91209582238C9324
:101A1000888182230AC0623051F4F8948C91322F6D
:101A2000309583238C938881822B888304C0F8941B
:101A30008C91822B8C939FBFDF91CF9108950F9350
:101A40001F93CF93DF931F92CDB7DEB7282F30E0DF
:101A5000F901E859FF4F8491F901E458FF4F1491BF
:101A6000F901E057FF4F04910023C9F0882321F0CA
:101A700069830E94BD0C6981E02FF0E0EE0FFF1F2B
:101A8000E255FF4FA591B4919FB7F8948C916111E5
:101A900003C01095812301C0812B8C939FBF0F90B1
:101AA000DF91CF911F910F910895CF93DF93282F4E
:101AB00030E0F901E859FF4F8491F901E458FF4FF4
:101AC000D491F901E057FF4FC491CC2391F08111DB
:101AD0000E94BD0CEC2FF0E0EE0FFF1FEC55FF4F06
:101AE000A591B4912C912D2381E090E021F480E028
:101AF00002C080E090E0DF91CF910895FC01818DDC
:101B0000228D90E0805C9F4F821B91098F739927F3
:101B10000895FC01918D828D981731F0828DE80F28
:101B2000F11D858D90E008958FEF9FEF0895FC01E2
:101B3000918D828D981761F0828DDF01A80FB11D04
:101B40005D968C91928D9F5F9F73928F90E0089528
:101B50008FEF9FEF08958BE19FE0892B49F080E0A4
:101B600090E0892B29F00E941B0F81110C9400003A
:101B70000895FC01848DDF01A80FB11DA35ABF4F4A
:101B80002C91848D90E001968F739927848FA6897C
:101B9000B7892C93A089B1898C9180648C93938DA3
:101BA000848D981306C00288F389E02D80818F7D93
:101BB00080830895CF93DF93EC01888D8823C9F04B
:101BC000EA89FB89808185FD05C0A889B9898C9146
:101BD00086FD0FC00FB607FCF5CF808185FFF2CFE1
:101BE000A889B9898C9185FFEDCFCE010E94B90DEE
:101BF000E7CFDF91CF910895CF92DF92FF920F93BD
:101C00001F93CF93DF931F92CDB7DEB76C0181E0B6
:101C1000D60158968C9358975B969C915B975C96EF
:101C20008C915C97981307C05096ED91FC91519759
:101C3000808185FD2EC0F601038D10E00F5F1F4FE0
:101C40000F731127F02EF601848DF81211C00FB614
:101C500007FCF9CFD6015096ED91FC915197808108
:101C600085FFF1CFC60169830E94B90D6981EBCF71
:101C7000838DE80FF11DE35AFF4F6083D6015B9619
:101C80000C935B975296ED91FC9153978081806203
:101C90000CC0D6015696ED91FC91579760835096F3
:101CA000ED91FC91519780818064808381E090E088
:101CB0000F90DF91CF911F910F91FF90DF90CF9008
:101CC0000895BF92CF92DF92EF92FF92CF93DF936E
:101CD000EC016A017B01B22EE889F98982E08083F8
:101CE000411581EE580761057105A1F060E079E0CA
:101CF0008DE390E0A70196010E947E1021503109EA
:101D0000410951095695479537952795211580E149
:101D1000380798F0E889F989108260E874E88EE164
:101D200090E0A70196010E947E10215031094109DF
:101D300051095695479537952795EC85FD85308354
:101D4000EE85FF852083188EEC89FD89B082EA89B3
:101D5000FB89808180618083EA89FB89808188603A
:101D60008083EA89FB89808180688083EA89FB8996
:101D700080818F7D8083DF91CF91FF90EF90DF9006
:101D8000CF90BF9008951F920F920FB60F9211241B
:101D90002F938F939F93EF93FF93E0919C04F09187
:101DA0009D048081E091A204F091A30482FD12C001
:101DB00090818091A5048F5F8F732091A604821774
:101DC00051F0E091A504F0E0E457FB4F958F80932C
:101DD000A50401C08081FF91EF919F918F912F9178
:101DE0000F900FBE0F901F9018951F920F920FB675
:101DF0000F9211242F933F934F935F936F937F9391
:101E00008F939F93AF93BF93EF93FF938CE894E0EE
:101E10000E94B90DFF91EF91BF91AF919F918F916A
:101E20007F916F915F914F913F912F910F900FBED6
:101E30000F901F9018958CE894E00E947E0D21E091
:101E4000892B09F420E0822F089510928F041092BC
:101E50008E0488EE93E0A0E0B0E08093900490932D
:101E60009104A0939204B09393048FE092E0909336
:101E70008D0480938C0485EC90E09093990480937A
:101E8000980484EC90E090939B0480939A0480ECF7
:101E900090E090939D0480939C0481EC90E090935B
:101EA0009F0480939E0482EC90E09093A104809321
:101EB000A00486EC90E09093A3048093A204109277
:101EC000A5041092A6041092A7041092A8040895E5
:101ED000CF92DF92EF92FF920F931F93CF93DF93F6
:101EE0007C016A01EB0100E010E00C151D0571F0AA
:101EF0006991D701ED91FC910190F081E02DC7012E
:101F00000995892B19F00F5F1F4FEFCFC801DF91A3
:101F1000CF911F910F91FF90EF90DF90CF90089598
:101F20006115710581F0DB010D900020E9F7AD012D
:101F300041505109461B570BDC01ED91FC91028089
:101F4000F381E02D099480E090E008950C94900FC7
:101F50006BE172E00C94900F0F931F93CF93DF937C
:101F6000EC010E94900F8C01CE010E94A80F800FFF
:101F7000911FDF91CF911F910F9108958F929F92A2
:101F8000AF92BF92DF92EF92FF920F931F93CF9386
:101F9000DF93CDB7DEB7A1970FB6F894DEBF0FBEC3
:101FA000CDBF7C01F42FD52ECB0119A2223008F42D
:101FB0002AE08E010F5D1F4F822E912CA12CB12C97
:101FC0006F2F7D2DA50194010E947E10F22FD32E3C
:101FD000CA01015011096A3014F4E0E301C0E7E3DB
:101FE000E60FD801EC93232B242B252B49F7B801BE
:101FF000C7010E94900FA1960FB6F894DEBF0FBEE6
:10200000CDBFDF91CF911F910F91FF90EF90DF90A7
:10201000BF90AF909F908F9008952115310541F4A6
:10202000DC01ED91FC910190F081E02D642F099489
:102030000C94BE0F0F931F93CF93DF93EC019A0183
:10204000462F50E060E070E00E940D108C01CE0140
:102050000E94A80F800F911FDF91CF911F910F91C8
:1020600008959A01AB0160E070E00C940D100F939D
:102070001F93CF93DF93EC019A01AB0160E070E016
:102080000E940D108C01CE010E94A80F800F911F9D
:10209000DF91CF911F910F91089508950E94650CD3
:1020A0000E944D100E947F01CBEADDE00E940902F0
:1020B0002097E1F30E94AB0DF9CF0895991B79E0C9
:1020C00004C0991F961708F0961B881F7A95C9F7C8
:1020D0008095089597FB072E16F4009407D077FD9E
:1020E00009D00E94CB1007FC05D03EF49095819555
:1020F0009F4F0895709561957F4F0895A1E21A2E24
:10210000AA1BBB1BFD010DC0AA1FBB1FEE1FFF1F9B
:10211000A217B307E407F50720F0A21BB30BE40BEB
:10212000F50B661F771F881F991F1A9469F7609532
:102130007095809590959B01AC01BD01CF010895EC
:10214000052E97FB1EF400940E94B71057FD07D090
:102150000E947E1007FC03D04EF40C94B7105095EB
:102160004095309521953F4F4F4F5F4F0895909583
:102170008095709561957F4F8F4F9F4F08950024F4
:10218000A7FD00942A17300540055005600570052D
:10219000800590050895AA1BBB1B51E107C0AA1F2B
:1021A000BB1FA617B70710F0A61BB70B881F991FF8
:1021B0005A95A9F780959095BC01CD010895EE0F31
:1021C000FF1F0590F491E02D0994F999FECF92BD7F
:1021D00081BDF89A992780B50895262FF999FECFE9
:1021E0001FBA92BD81BD20BD0FB6F894FA9AF99A34
:1021F0000FBE0196089510E0C6ECD0E004C0FE01C9
:102200000E94E1102296C83CD107C9F7F894FFCF8D
:102210003F065B4F666D7D077F6F000028282828EA
:10222000280000000000000017281A0B0B0F0F00F9
:102230000000000000001B00230F0F161600000016
:10224000000000001B0A1E0F0F1313000000000007
:10225000000019141B0C0C101000000000000000FE
:102260001B1B340B0B1010000000000000000F00BF
:102270000E00060005000400480001476F676F6705
:102280006F2100496E69742066697273744D6163D1
:1022900068696E654D696E3D00737461727474692E
:1022A0006D653D002C004D6F64653D006D756C3DA6
:1022B0000070686F6E6574696D653D00232323238C
:1022C0002323232323232323232323232323230001
:1022D000456E61626C6564204D616E75616C004491
:1022E000697361626C6564204D616E75616C00217B
:1022F000214175746F6D6174696F6E204D6F6465F7
:1023000021216E6F7774696D653D00000000005EED
:1023100008680FCB083D08B108B00800000000FCB9
:102320000D680F7E0D970D890DDA0D0D0A006E6197
:0C2330006E00696E66006F7666002E007D
:00000001FF
